{
  "_format": "hh-sol-artifact-1",
  "contractName": "GovernorContract",
  "sourceName": "contracts/governance_standard/GovernorContract.sol",
  "abi": [
    {
      "inputs": [
        {
          "internalType": "contract IVotes",
          "name": "_token",
          "type": "address"
        },
        {
          "internalType": "contract TimelockController",
          "name": "_timelock",
          "type": "address"
        },
        {
          "internalType": "uint256",
          "name": "_quorumPercentage",
          "type": "uint256"
        },
        {
          "internalType": "uint256",
          "name": "_votingPeriod",
          "type": "uint256"
        },
        {
          "internalType": "uint256",
          "name": "_votingDelay",
          "type": "uint256"
        }
      ],
      "stateMutability": "nonpayable",
      "type": "constructor"
    },
    {
      "inputs": [],
      "name": "Empty",
      "type": "error"
    },
    {
      "anonymous": false,
      "inputs": [
        {
          "indexed": false,
          "internalType": "uint256",
          "name": "proposalId",
          "type": "uint256"
        }
      ],
      "name": "ProposalCanceled",
      "type": "event"
    },
    {
      "anonymous": false,
      "inputs": [
        {
          "indexed": false,
          "internalType": "uint256",
          "name": "proposalId",
          "type": "uint256"
        },
        {
          "indexed": false,
          "internalType": "address",
          "name": "proposer",
          "type": "address"
        },
        {
          "indexed": false,
          "internalType": "address[]",
          "name": "targets",
          "type": "address[]"
        },
        {
          "indexed": false,
          "internalType": "uint256[]",
          "name": "values",
          "type": "uint256[]"
        },
        {
          "indexed": false,
          "internalType": "string[]",
          "name": "signatures",
          "type": "string[]"
        },
        {
          "indexed": false,
          "internalType": "bytes[]",
          "name": "calldatas",
          "type": "bytes[]"
        },
        {
          "indexed": false,
          "internalType": "uint256",
          "name": "startBlock",
          "type": "uint256"
        },
        {
          "indexed": false,
          "internalType": "uint256",
          "name": "endBlock",
          "type": "uint256"
        },
        {
          "indexed": false,
          "internalType": "string",
          "name": "description",
          "type": "string"
        }
      ],
      "name": "ProposalCreated",
      "type": "event"
    },
    {
      "anonymous": false,
      "inputs": [
        {
          "indexed": false,
          "internalType": "uint256",
          "name": "proposalId",
          "type": "uint256"
        }
      ],
      "name": "ProposalExecuted",
      "type": "event"
    },
    {
      "anonymous": false,
      "inputs": [
        {
          "indexed": false,
          "internalType": "uint256",
          "name": "proposalId",
          "type": "uint256"
        },
        {
          "indexed": false,
          "internalType": "uint256",
          "name": "eta",
          "type": "uint256"
        }
      ],
      "name": "ProposalQueued",
      "type": "event"
    },
    {
      "anonymous": false,
      "inputs": [
        {
          "indexed": false,
          "internalType": "uint256",
          "name": "oldProposalThreshold",
          "type": "uint256"
        },
        {
          "indexed": false,
          "internalType": "uint256",
          "name": "newProposalThreshold",
          "type": "uint256"
        }
      ],
      "name": "ProposalThresholdSet",
      "type": "event"
    },
    {
      "anonymous": false,
      "inputs": [
        {
          "indexed": false,
          "internalType": "uint256",
          "name": "oldQuorumNumerator",
          "type": "uint256"
        },
        {
          "indexed": false,
          "internalType": "uint256",
          "name": "newQuorumNumerator",
          "type": "uint256"
        }
      ],
      "name": "QuorumNumeratorUpdated",
      "type": "event"
    },
    {
      "anonymous": false,
      "inputs": [
        {
          "indexed": false,
          "internalType": "address",
          "name": "oldTimelock",
          "type": "address"
        },
        {
          "indexed": false,
          "internalType": "address",
          "name": "newTimelock",
          "type": "address"
        }
      ],
      "name": "TimelockChange",
      "type": "event"
    },
    {
      "anonymous": false,
      "inputs": [
        {
          "indexed": true,
          "internalType": "address",
          "name": "voter",
          "type": "address"
        },
        {
          "indexed": false,
          "internalType": "uint256",
          "name": "proposalId",
          "type": "uint256"
        },
        {
          "indexed": false,
          "internalType": "uint8",
          "name": "support",
          "type": "uint8"
        },
        {
          "indexed": false,
          "internalType": "uint256",
          "name": "weight",
          "type": "uint256"
        },
        {
          "indexed": false,
          "internalType": "string",
          "name": "reason",
          "type": "string"
        }
      ],
      "name": "VoteCast",
      "type": "event"
    },
    {
      "anonymous": false,
      "inputs": [
        {
          "indexed": true,
          "internalType": "address",
          "name": "voter",
          "type": "address"
        },
        {
          "indexed": false,
          "internalType": "uint256",
          "name": "proposalId",
          "type": "uint256"
        },
        {
          "indexed": false,
          "internalType": "uint8",
          "name": "support",
          "type": "uint8"
        },
        {
          "indexed": false,
          "internalType": "uint256",
          "name": "weight",
          "type": "uint256"
        },
        {
          "indexed": false,
          "internalType": "string",
          "name": "reason",
          "type": "string"
        },
        {
          "indexed": false,
          "internalType": "bytes",
          "name": "params",
          "type": "bytes"
        }
      ],
      "name": "VoteCastWithParams",
      "type": "event"
    },
    {
      "anonymous": false,
      "inputs": [
        {
          "indexed": false,
          "internalType": "uint256",
          "name": "oldVotingDelay",
          "type": "uint256"
        },
        {
          "indexed": false,
          "internalType": "uint256",
          "name": "newVotingDelay",
          "type": "uint256"
        }
      ],
      "name": "VotingDelaySet",
      "type": "event"
    },
    {
      "anonymous": false,
      "inputs": [
        {
          "indexed": false,
          "internalType": "uint256",
          "name": "oldVotingPeriod",
          "type": "uint256"
        },
        {
          "indexed": false,
          "internalType": "uint256",
          "name": "newVotingPeriod",
          "type": "uint256"
        }
      ],
      "name": "VotingPeriodSet",
      "type": "event"
    },
    {
      "inputs": [],
      "name": "BALLOT_TYPEHASH",
      "outputs": [
        {
          "internalType": "bytes32",
          "name": "",
          "type": "bytes32"
        }
      ],
      "stateMutability": "view",
      "type": "function"
    },
    {
      "inputs": [],
      "name": "COUNTING_MODE",
      "outputs": [
        {
          "internalType": "string",
          "name": "",
          "type": "string"
        }
      ],
      "stateMutability": "pure",
      "type": "function"
    },
    {
      "inputs": [],
      "name": "EXTENDED_BALLOT_TYPEHASH",
      "outputs": [
        {
          "internalType": "bytes32",
          "name": "",
          "type": "bytes32"
        }
      ],
      "stateMutability": "view",
      "type": "function"
    },
    {
      "inputs": [
        {
          "internalType": "uint256",
          "name": "proposalId",
          "type": "uint256"
        },
        {
          "internalType": "uint8",
          "name": "support",
          "type": "uint8"
        }
      ],
      "name": "castVote",
      "outputs": [
        {
          "internalType": "uint256",
          "name": "",
          "type": "uint256"
        }
      ],
      "stateMutability": "nonpayable",
      "type": "function"
    },
    {
      "inputs": [
        {
          "internalType": "uint256",
          "name": "proposalId",
          "type": "uint256"
        },
        {
          "internalType": "uint8",
          "name": "support",
          "type": "uint8"
        },
        {
          "internalType": "uint8",
          "name": "v",
          "type": "uint8"
        },
        {
          "internalType": "bytes32",
          "name": "r",
          "type": "bytes32"
        },
        {
          "internalType": "bytes32",
          "name": "s",
          "type": "bytes32"
        }
      ],
      "name": "castVoteBySig",
      "outputs": [
        {
          "internalType": "uint256",
          "name": "",
          "type": "uint256"
        }
      ],
      "stateMutability": "nonpayable",
      "type": "function"
    },
    {
      "inputs": [
        {
          "internalType": "uint256",
          "name": "proposalId",
          "type": "uint256"
        },
        {
          "internalType": "uint8",
          "name": "support",
          "type": "uint8"
        },
        {
          "internalType": "string",
          "name": "reason",
          "type": "string"
        }
      ],
      "name": "castVoteWithReason",
      "outputs": [
        {
          "internalType": "uint256",
          "name": "",
          "type": "uint256"
        }
      ],
      "stateMutability": "nonpayable",
      "type": "function"
    },
    {
      "inputs": [
        {
          "internalType": "uint256",
          "name": "proposalId",
          "type": "uint256"
        },
        {
          "internalType": "uint8",
          "name": "support",
          "type": "uint8"
        },
        {
          "internalType": "string",
          "name": "reason",
          "type": "string"
        },
        {
          "internalType": "bytes",
          "name": "params",
          "type": "bytes"
        }
      ],
      "name": "castVoteWithReasonAndParams",
      "outputs": [
        {
          "internalType": "uint256",
          "name": "",
          "type": "uint256"
        }
      ],
      "stateMutability": "nonpayable",
      "type": "function"
    },
    {
      "inputs": [
        {
          "internalType": "uint256",
          "name": "proposalId",
          "type": "uint256"
        },
        {
          "internalType": "uint8",
          "name": "support",
          "type": "uint8"
        },
        {
          "internalType": "string",
          "name": "reason",
          "type": "string"
        },
        {
          "internalType": "bytes",
          "name": "params",
          "type": "bytes"
        },
        {
          "internalType": "uint8",
          "name": "v",
          "type": "uint8"
        },
        {
          "internalType": "bytes32",
          "name": "r",
          "type": "bytes32"
        },
        {
          "internalType": "bytes32",
          "name": "s",
          "type": "bytes32"
        }
      ],
      "name": "castVoteWithReasonAndParamsBySig",
      "outputs": [
        {
          "internalType": "uint256",
          "name": "",
          "type": "uint256"
        }
      ],
      "stateMutability": "nonpayable",
      "type": "function"
    },
    {
      "inputs": [
        {
          "internalType": "address[]",
          "name": "targets",
          "type": "address[]"
        },
        {
          "internalType": "uint256[]",
          "name": "values",
          "type": "uint256[]"
        },
        {
          "internalType": "bytes[]",
          "name": "calldatas",
          "type": "bytes[]"
        },
        {
          "internalType": "bytes32",
          "name": "descriptionHash",
          "type": "bytes32"
        }
      ],
      "name": "execute",
      "outputs": [
        {
          "internalType": "uint256",
          "name": "",
          "type": "uint256"
        }
      ],
      "stateMutability": "payable",
      "type": "function"
    },
    {
      "inputs": [
        {
          "internalType": "address",
          "name": "account",
          "type": "address"
        },
        {
          "internalType": "uint256",
          "name": "blockNumber",
          "type": "uint256"
        }
      ],
      "name": "getVotes",
      "outputs": [
        {
          "internalType": "uint256",
          "name": "",
          "type": "uint256"
        }
      ],
      "stateMutability": "view",
      "type": "function"
    },
    {
      "inputs": [
        {
          "internalType": "address",
          "name": "account",
          "type": "address"
        },
        {
          "internalType": "uint256",
          "name": "blockNumber",
          "type": "uint256"
        },
        {
          "internalType": "bytes",
          "name": "params",
          "type": "bytes"
        }
      ],
      "name": "getVotesWithParams",
      "outputs": [
        {
          "internalType": "uint256",
          "name": "",
          "type": "uint256"
        }
      ],
      "stateMutability": "view",
      "type": "function"
    },
    {
      "inputs": [
        {
          "internalType": "uint256",
          "name": "proposalId",
          "type": "uint256"
        },
        {
          "internalType": "address",
          "name": "account",
          "type": "address"
        }
      ],
      "name": "hasVoted",
      "outputs": [
        {
          "internalType": "bool",
          "name": "",
          "type": "bool"
        }
      ],
      "stateMutability": "view",
      "type": "function"
    },
    {
      "inputs": [
        {
          "internalType": "address[]",
          "name": "targets",
          "type": "address[]"
        },
        {
          "internalType": "uint256[]",
          "name": "values",
          "type": "uint256[]"
        },
        {
          "internalType": "bytes[]",
          "name": "calldatas",
          "type": "bytes[]"
        },
        {
          "internalType": "bytes32",
          "name": "descriptionHash",
          "type": "bytes32"
        }
      ],
      "name": "hashProposal",
      "outputs": [
        {
          "internalType": "uint256",
          "name": "",
          "type": "uint256"
        }
      ],
      "stateMutability": "pure",
      "type": "function"
    },
    {
      "inputs": [],
      "name": "name",
      "outputs": [
        {
          "internalType": "string",
          "name": "",
          "type": "string"
        }
      ],
      "stateMutability": "view",
      "type": "function"
    },
    {
      "inputs": [
        {
          "internalType": "address",
          "name": "",
          "type": "address"
        },
        {
          "internalType": "address",
          "name": "",
          "type": "address"
        },
        {
          "internalType": "uint256[]",
          "name": "",
          "type": "uint256[]"
        },
        {
          "internalType": "uint256[]",
          "name": "",
          "type": "uint256[]"
        },
        {
          "internalType": "bytes",
          "name": "",
          "type": "bytes"
        }
      ],
      "name": "onERC1155BatchReceived",
      "outputs": [
        {
          "internalType": "bytes4",
          "name": "",
          "type": "bytes4"
        }
      ],
      "stateMutability": "nonpayable",
      "type": "function"
    },
    {
      "inputs": [
        {
          "internalType": "address",
          "name": "",
          "type": "address"
        },
        {
          "internalType": "address",
          "name": "",
          "type": "address"
        },
        {
          "internalType": "uint256",
          "name": "",
          "type": "uint256"
        },
        {
          "internalType": "uint256",
          "name": "",
          "type": "uint256"
        },
        {
          "internalType": "bytes",
          "name": "",
          "type": "bytes"
        }
      ],
      "name": "onERC1155Received",
      "outputs": [
        {
          "internalType": "bytes4",
          "name": "",
          "type": "bytes4"
        }
      ],
      "stateMutability": "nonpayable",
      "type": "function"
    },
    {
      "inputs": [
        {
          "internalType": "address",
          "name": "",
          "type": "address"
        },
        {
          "internalType": "address",
          "name": "",
          "type": "address"
        },
        {
          "internalType": "uint256",
          "name": "",
          "type": "uint256"
        },
        {
          "internalType": "bytes",
          "name": "",
          "type": "bytes"
        }
      ],
      "name": "onERC721Received",
      "outputs": [
        {
          "internalType": "bytes4",
          "name": "",
          "type": "bytes4"
        }
      ],
      "stateMutability": "nonpayable",
      "type": "function"
    },
    {
      "inputs": [
        {
          "internalType": "uint256",
          "name": "proposalId",
          "type": "uint256"
        }
      ],
      "name": "proposalDeadline",
      "outputs": [
        {
          "internalType": "uint256",
          "name": "",
          "type": "uint256"
        }
      ],
      "stateMutability": "view",
      "type": "function"
    },
    {
      "inputs": [
        {
          "internalType": "uint256",
          "name": "proposalId",
          "type": "uint256"
        }
      ],
      "name": "proposalEta",
      "outputs": [
        {
          "internalType": "uint256",
          "name": "",
          "type": "uint256"
        }
      ],
      "stateMutability": "view",
      "type": "function"
    },
    {
      "inputs": [
        {
          "internalType": "uint256",
          "name": "proposalId",
          "type": "uint256"
        }
      ],
      "name": "proposalSnapshot",
      "outputs": [
        {
          "internalType": "uint256",
          "name": "",
          "type": "uint256"
        }
      ],
      "stateMutability": "view",
      "type": "function"
    },
    {
      "inputs": [],
      "name": "proposalThreshold",
      "outputs": [
        {
          "internalType": "uint256",
          "name": "",
          "type": "uint256"
        }
      ],
      "stateMutability": "view",
      "type": "function"
    },
    {
      "inputs": [
        {
          "internalType": "uint256",
          "name": "proposalId",
          "type": "uint256"
        }
      ],
      "name": "proposalVotes",
      "outputs": [
        {
          "internalType": "uint256",
          "name": "againstVotes",
          "type": "uint256"
        },
        {
          "internalType": "uint256",
          "name": "forVotes",
          "type": "uint256"
        },
        {
          "internalType": "uint256",
          "name": "abstainVotes",
          "type": "uint256"
        }
      ],
      "stateMutability": "view",
      "type": "function"
    },
    {
      "inputs": [
        {
          "internalType": "address[]",
          "name": "targets",
          "type": "address[]"
        },
        {
          "internalType": "uint256[]",
          "name": "values",
          "type": "uint256[]"
        },
        {
          "internalType": "bytes[]",
          "name": "calldatas",
          "type": "bytes[]"
        },
        {
          "internalType": "string",
          "name": "description",
          "type": "string"
        }
      ],
      "name": "propose",
      "outputs": [
        {
          "internalType": "uint256",
          "name": "",
          "type": "uint256"
        }
      ],
      "stateMutability": "nonpayable",
      "type": "function"
    },
    {
      "inputs": [
        {
          "internalType": "address[]",
          "name": "targets",
          "type": "address[]"
        },
        {
          "internalType": "uint256[]",
          "name": "values",
          "type": "uint256[]"
        },
        {
          "internalType": "bytes[]",
          "name": "calldatas",
          "type": "bytes[]"
        },
        {
          "internalType": "bytes32",
          "name": "descriptionHash",
          "type": "bytes32"
        }
      ],
      "name": "queue",
      "outputs": [
        {
          "internalType": "uint256",
          "name": "",
          "type": "uint256"
        }
      ],
      "stateMutability": "nonpayable",
      "type": "function"
    },
    {
      "inputs": [
        {
          "internalType": "uint256",
          "name": "blockNumber",
          "type": "uint256"
        }
      ],
      "name": "quorum",
      "outputs": [
        {
          "internalType": "uint256",
          "name": "",
          "type": "uint256"
        }
      ],
      "stateMutability": "view",
      "type": "function"
    },
    {
      "inputs": [],
      "name": "quorumDenominator",
      "outputs": [
        {
          "internalType": "uint256",
          "name": "",
          "type": "uint256"
        }
      ],
      "stateMutability": "view",
      "type": "function"
    },
    {
      "inputs": [],
      "name": "quorumNumerator",
      "outputs": [
        {
          "internalType": "uint256",
          "name": "",
          "type": "uint256"
        }
      ],
      "stateMutability": "view",
      "type": "function"
    },
    {
      "inputs": [
        {
          "internalType": "address",
          "name": "target",
          "type": "address"
        },
        {
          "internalType": "uint256",
          "name": "value",
          "type": "uint256"
        },
        {
          "internalType": "bytes",
          "name": "data",
          "type": "bytes"
        }
      ],
      "name": "relay",
      "outputs": [],
      "stateMutability": "nonpayable",
      "type": "function"
    },
    {
      "inputs": [
        {
          "internalType": "uint256",
          "name": "newProposalThreshold",
          "type": "uint256"
        }
      ],
      "name": "setProposalThreshold",
      "outputs": [],
      "stateMutability": "nonpayable",
      "type": "function"
    },
    {
      "inputs": [
        {
          "internalType": "uint256",
          "name": "newVotingDelay",
          "type": "uint256"
        }
      ],
      "name": "setVotingDelay",
      "outputs": [],
      "stateMutability": "nonpayable",
      "type": "function"
    },
    {
      "inputs": [
        {
          "internalType": "uint256",
          "name": "newVotingPeriod",
          "type": "uint256"
        }
      ],
      "name": "setVotingPeriod",
      "outputs": [],
      "stateMutability": "nonpayable",
      "type": "function"
    },
    {
      "inputs": [
        {
          "internalType": "uint256",
          "name": "proposalId",
          "type": "uint256"
        }
      ],
      "name": "state",
      "outputs": [
        {
          "internalType": "enum IGovernor.ProposalState",
          "name": "",
          "type": "uint8"
        }
      ],
      "stateMutability": "view",
      "type": "function"
    },
    {
      "inputs": [
        {
          "internalType": "bytes4",
          "name": "interfaceId",
          "type": "bytes4"
        }
      ],
      "name": "supportsInterface",
      "outputs": [
        {
          "internalType": "bool",
          "name": "",
          "type": "bool"
        }
      ],
      "stateMutability": "view",
      "type": "function"
    },
    {
      "inputs": [],
      "name": "timelock",
      "outputs": [
        {
          "internalType": "address",
          "name": "",
          "type": "address"
        }
      ],
      "stateMutability": "view",
      "type": "function"
    },
    {
      "inputs": [],
      "name": "token",
      "outputs": [
        {
          "internalType": "contract IVotes",
          "name": "",
          "type": "address"
        }
      ],
      "stateMutability": "view",
      "type": "function"
    },
    {
      "inputs": [
        {
          "internalType": "uint256",
          "name": "newQuorumNumerator",
          "type": "uint256"
        }
      ],
      "name": "updateQuorumNumerator",
      "outputs": [],
      "stateMutability": "nonpayable",
      "type": "function"
    },
    {
      "inputs": [
        {
          "internalType": "contract TimelockController",
          "name": "newTimelock",
          "type": "address"
        }
      ],
      "name": "updateTimelock",
      "outputs": [],
      "stateMutability": "nonpayable",
      "type": "function"
    },
    {
      "inputs": [],
      "name": "version",
      "outputs": [
        {
          "internalType": "string",
          "name": "",
          "type": "string"
        }
      ],
      "stateMutability": "view",
      "type": "function"
    },
    {
      "inputs": [],
      "name": "votingDelay",
      "outputs": [
        {
          "internalType": "uint256",
          "name": "",
          "type": "uint256"
        }
      ],
      "stateMutability": "view",
      "type": "function"
    },
    {
      "inputs": [],
      "name": "votingPeriod",
      "outputs": [
        {
          "internalType": "uint256",
          "name": "",
          "type": "uint256"
        }
      ],
      "stateMutability": "view",
      "type": "function"
    },
    {
      "stateMutability": "payable",
      "type": "receive"
    }
  ],
  "bytecode": "0x6101606040523480156200001257600080fd5b5060405162006c4538038062006c4583398181016040528101906200003891906200068f565b838386838560006040518060400160405280601081526020017f476f7665726e6f72436f6e7472616374000000000000000000000000000000008152508062000086620001ed60201b60201c565b60008280519060200120905060008280519060200120905060007f8b73c3c69bb8fe3d512ecc4cf759cc79239f7b179b0ffacaa9a75d522b39400f90508260e081815250508161010081815250504660a08181525050620000ef8184846200022a60201b60201c565b608081815250503073ffffffffffffffffffffffffffffffffffffffff1660c08173ffffffffffffffffffffffffffffffffffffffff16815250508061012081815250505050505050806000908051906020019062000150929190620004cd565b505062000163836200026660201b60201c565b6200017482620002ad60201b60201c565b62000185816200033a60201b60201c565b5050508073ffffffffffffffffffffffffffffffffffffffff166101408173ffffffffffffffffffffffffffffffffffffffff168152505050620001cf816200038160201b60201c565b50620001e1816200042360201b60201c565b505050505050620009d7565b60606040518060400160405280600181526020017f3100000000000000000000000000000000000000000000000000000000000000815250905090565b600083838346306040516020016200024795949392919062000754565b6040516020818303038152906040528051906020012090509392505050565b7fc565b045403dc03c2eea82b81a0465edad9e2e7fc4d97e11421c209da93d7a93600454826040516200029b929190620007b1565b60405180910390a18060048190555050565b60008111620002f3576040517f08c379a0000000000000000000000000000000000000000000000000000000008152600401620002ea9062000865565b60405180910390fd5b7f7e3f7f0708a84de9203036abaa450dccc85ad5ff52f78c170f3edb55cf5e88286005548260405162000328929190620007b1565b60405180910390a18060058190555050565b7fccb45da8d5717e6c4544694297c4ba5cf151d455c9bb0ed4fc7a38411bc05461600654826040516200036f929190620007b1565b60405180910390a18060068190555050565b62000391620004c460201b60201c565b811115620003d6576040517f08c379a0000000000000000000000000000000000000000000000000000000008152600401620003cd9062000923565b60405180910390fd5b60006008549050816008819055507f0553476bf02ef2726e8ce5ced78d63e26e602e4a2257b1f559418e24b4633997818360405162000417929190620007b1565b60405180910390a15050565b7f08f74ea46ef7894f65eabfb5e6e695de773a000b47c529ab559178069b226401600960009054906101000a900473ffffffffffffffffffffffffffffffffffffffff16826040516200047892919062000945565b60405180910390a180600960006101000a81548173ffffffffffffffffffffffffffffffffffffffff021916908373ffffffffffffffffffffffffffffffffffffffff16021790555050565b60006064905090565b828054620004db90620009a1565b90600052602060002090601f016020900481019282620004ff57600085556200054b565b82601f106200051a57805160ff19168380011785556200054b565b828001600101855582156200054b579182015b828111156200054a5782518255916020019190600101906200052d565b5b5090506200055a91906200055e565b5090565b5b80821115620005795760008160009055506001016200055f565b5090565b600080fd5b600073ffffffffffffffffffffffffffffffffffffffff82169050919050565b6000620005af8262000582565b9050919050565b6000620005c382620005a2565b9050919050565b620005d581620005b6565b8114620005e157600080fd5b50565b600081519050620005f581620005ca565b92915050565b6000620006088262000582565b9050919050565b60006200061c82620005fb565b9050919050565b6200062e816200060f565b81146200063a57600080fd5b50565b6000815190506200064e8162000623565b92915050565b6000819050919050565b620006698162000654565b81146200067557600080fd5b50565b60008151905062000689816200065e565b92915050565b600080600080600060a08688031215620006ae57620006ad6200057d565b5b6000620006be88828901620005e4565b9550506020620006d1888289016200063d565b9450506040620006e48882890162000678565b9350506060620006f78882890162000678565b92505060806200070a8882890162000678565b9150509295509295909350565b6000819050919050565b6200072c8162000717565b82525050565b6200073d8162000654565b82525050565b6200074e81620005a2565b82525050565b600060a0820190506200076b600083018862000721565b6200077a602083018762000721565b62000789604083018662000721565b62000798606083018562000732565b620007a7608083018462000743565b9695505050505050565b6000604082019050620007c8600083018562000732565b620007d7602083018462000732565b9392505050565b600082825260208201905092915050565b7f476f7665726e6f7253657474696e67733a20766f74696e6720706572696f642060008201527f746f6f206c6f7700000000000000000000000000000000000000000000000000602082015250565b60006200084d602783620007de565b91506200085a82620007ef565b604082019050919050565b6000602082019050818103600083015262000880816200083e565b9050919050565b7f476f7665726e6f72566f74657351756f72756d4672616374696f6e3a2071756f60008201527f72756d4e756d657261746f72206f7665722071756f72756d44656e6f6d696e6160208201527f746f720000000000000000000000000000000000000000000000000000000000604082015250565b60006200090b604383620007de565b9150620009188262000887565b606082019050919050565b600060208201905081810360008301526200093e81620008fc565b9050919050565b60006040820190506200095c600083018562000743565b6200096b602083018462000743565b9392505050565b7f4e487b7100000000000000000000000000000000000000000000000000000000600052602260045260246000fd5b60006002820490506001821680620009ba57607f821691505b60208210811415620009d157620009d062000972565b5b50919050565b60805160a05160c05160e05161010051610120516101405161620562000a4060003960008181611c6f0152818161277601526129ee01526000612cb401526000612cf601526000612cd501526000612c0a01526000612c6001526000612c8901526162056000f3fe60806040526004361061023f5760003560e01c80637d5e81e21161012e578063c59057e4116100ab578063eb9019d41161006f578063eb9019d4146109ac578063ece40cc1146109e9578063f23a6e6114610a12578063f8ce560a14610a4f578063fc0c546a14610a8c57610285565b8063c59057e4146108c5578063d33219b414610902578063dd4e2ba51461092d578063deaaa7cc14610958578063ea0217cf1461098357610285565b8063ab58fb8e116100f2578063ab58fb8e146107ba578063b58131b0146107f7578063bc197c8114610822578063c01f9e371461085f578063c28bc2fa1461089c57610285565b80637d5e81e2146106c157806397c3d334146106fe5780639a802a6d14610729578063a7713a7014610766578063a890c9101461079157610285565b80633932abb1116101bc57806354fd4d501161018057806354fd4d50146105b657806356781388146105e15780635f398a141461061e57806370b0f6601461065b5780637b3c71d31461068457610285565b80633932abb1146104955780633bccf4fd146104c05780633e4f49e6146104fd578063438596321461053a578063544ffc9c1461057757610285565b8063150b7a0211610203578063150b7a0214610383578063160cbed7146103c05780632656227d146103fd5780632d63f6931461042d5780632fe3e2611461046a57610285565b806301ffc9a71461028a57806302a251a3146102c757806303420181146102f257806306f3f9e61461032f57806306fdde031461035857610285565b36610285573073ffffffffffffffffffffffffffffffffffffffff16610263610ab7565b73ffffffffffffffffffffffffffffffffffffffff161461028357600080fd5b005b600080fd5b34801561029657600080fd5b506102b160048036038101906102ac91906138f8565b610ac6565b6040516102be9190613940565b60405180910390f35b3480156102d357600080fd5b506102dc610ad8565b6040516102e99190613974565b60405180910390f35b3480156102fe57600080fd5b5061031960048036038101906103149190613bd0565b610ae7565b6040516103269190613974565b60405180910390f35b34801561033b57600080fd5b5061035660048036038101906103519190613cae565b610bcc565b005b34801561036457600080fd5b5061036d610cc8565b60405161037a9190613d63565b60405180910390f35b34801561038f57600080fd5b506103aa60048036038101906103a59190613de3565b610d5a565b6040516103b79190613e75565b60405180910390f35b3480156103cc57600080fd5b506103e760048036038101906103e291906140f7565b610d6e565b6040516103f49190613974565b60405180910390f35b610417600480360381019061041291906140f7565b611028565b6040516104249190613974565b60405180910390f35b34801561043957600080fd5b50610454600480360381019061044f9190613cae565b611175565b6040516104619190613974565b60405180910390f35b34801561047657600080fd5b5061047f6111e3565b60405161048c91906141c1565b60405180910390f35b3480156104a157600080fd5b506104aa611207565b6040516104b79190613974565b60405180910390f35b3480156104cc57600080fd5b506104e760048036038101906104e291906141dc565b611216565b6040516104f49190613974565b60405180910390f35b34801561050957600080fd5b50610524600480360381019061051f9190613cae565b6112a0565b60405161053191906142ce565b60405180910390f35b34801561054657600080fd5b50610561600480360381019061055c91906142e9565b6112b2565b60405161056e9190613940565b60405180910390f35b34801561058357600080fd5b5061059e60048036038101906105999190613cae565b61131d565b6040516105ad93929190614329565b60405180910390f35b3480156105c257600080fd5b506105cb611355565b6040516105d89190613d63565b60405180910390f35b3480156105ed57600080fd5b5061060860048036038101906106039190614360565b611392565b6040516106159190613974565b60405180910390f35b34801561062a57600080fd5b50610645600480360381019061064091906143a0565b6113c3565b6040516106529190613974565b60405180910390f35b34801561066757600080fd5b50610682600480360381019061067d9190613cae565b61142d565b005b34801561069057600080fd5b506106ab60048036038101906106a69190614444565b611529565b6040516106b89190613974565b60405180910390f35b3480156106cd57600080fd5b506106e860048036038101906106e39190614559565b611591565b6040516106f59190613974565b60405180910390f35b34801561070a57600080fd5b506107136115a9565b6040516107209190613974565b60405180910390f35b34801561073557600080fd5b50610750600480360381019061074b9190614630565b6115b2565b60405161075d9190613974565b60405180910390f35b34801561077257600080fd5b5061077b6115c8565b6040516107889190613974565b60405180910390f35b34801561079d57600080fd5b506107b860048036038101906107b391906146ef565b6115d2565b005b3480156107c657600080fd5b506107e160048036038101906107dc9190613cae565b6116ce565b6040516107ee9190613974565b60405180910390f35b34801561080357600080fd5b5061080c61179b565b6040516108199190613974565b60405180910390f35b34801561082e57600080fd5b506108496004803603810190610844919061471c565b6117aa565b6040516108569190613e75565b60405180910390f35b34801561086b57600080fd5b5061088660048036038101906108819190613cae565b6117bf565b6040516108939190613974565b60405180910390f35b3480156108a857600080fd5b506108c360048036038101906108be9190614841565b61182d565b005b3480156108d157600080fd5b506108ec60048036038101906108e791906140f7565b611973565b6040516108f99190613974565b60405180910390f35b34801561090e57600080fd5b506109176119af565b60405161092491906148c4565b60405180910390f35b34801561093957600080fd5b506109426119d9565b60405161094f9190613d63565b60405180910390f35b34801561096457600080fd5b5061096d611a16565b60405161097a91906141c1565b60405180910390f35b34801561098f57600080fd5b506109aa60048036038101906109a59190613cae565b611a3a565b005b3480156109b857600080fd5b506109d360048036038101906109ce91906148df565b611b36565b6040516109e09190613974565b60405180910390f35b3480156109f557600080fd5b50610a106004803603810190610a0b9190613cae565b611b4a565b005b348015610a1e57600080fd5b50610a396004803603810190610a34919061491f565b611c46565b604051610a469190613e75565b60405180910390f35b348015610a5b57600080fd5b50610a766004803603810190610a719190613cae565b611c5b565b604051610a839190613974565b60405180910390f35b348015610a9857600080fd5b50610aa1611c6d565b604051610aae9190614a15565b60405180910390f35b6000610ac1611c91565b905090565b6000610ad182611cbb565b9050919050565b6000610ae2611d35565b905090565b600080610b6a610b627fb3b3f3b703cd84ce352197dcff232b1b5d3cfb2025ce47cf04742d0651f1af888c8c8c8c604051610b23929190614a60565b60405180910390208b80519060200120604051602001610b47959493929190614a88565b60405160208183030381529060405280519060200120611d3f565b868686611d59565b9050610bbd8a828b8b8b8080601f016020809104026020016040519081016040528093929190818152602001838380828437600081840152601f19601f820116905080830192505050505050508a611d84565b91505098975050505050505050565b610bd4610ab7565b73ffffffffffffffffffffffffffffffffffffffff16610bf2611f41565b73ffffffffffffffffffffffffffffffffffffffff1614610c48576040517f08c379a0000000000000000000000000000000000000000000000000000000008152600401610c3f90614b27565b60405180910390fd5b3073ffffffffffffffffffffffffffffffffffffffff16610c67610ab7565b73ffffffffffffffffffffffffffffffffffffffff1614610cbc576000610c8c611f49565b604051610c9a929190614a60565b604051809103902090505b80610cb06002611f56565b14610cba57610ca5565b505b610cc581612032565b50565b606060008054610cd790614b76565b80601f0160208091040260200160405190810160405280929190818152602001828054610d0390614b76565b8015610d505780601f10610d2557610100808354040283529160200191610d50565b820191906000526020600020905b815481529060010190602001808311610d3357829003601f168201915b5050505050905090565b600063150b7a0260e01b9050949350505050565b600080610d7d86868686611973565b905060046007811115610d9357610d92614257565b5b610d9c826112a0565b6007811115610dae57610dad614257565b5b14610dee576040517f08c379a0000000000000000000000000000000000000000000000000000000008152600401610de590614c1a565b60405180910390fd5b6000600960009054906101000a900473ffffffffffffffffffffffffffffffffffffffff1673ffffffffffffffffffffffffffffffffffffffff1663f27a0c926040518163ffffffff1660e01b8152600401602060405180830381865afa158015610e5d573d6000803e3d6000fd5b505050506040513d601f19601f82011682018060405250810190610e819190614c4f565b9050600960009054906101000a900473ffffffffffffffffffffffffffffffffffffffff1673ffffffffffffffffffffffffffffffffffffffff1663b1c5f4278888886000896040518663ffffffff1660e01b8152600401610ee7959493929190614f57565b602060405180830381865afa158015610f04573d6000803e3d6000fd5b505050506040513d601f19601f82011682018060405250810190610f289190614fd4565b600a600084815260200190815260200160002081905550600960009054906101000a900473ffffffffffffffffffffffffffffffffffffffff1673ffffffffffffffffffffffffffffffffffffffff16638f2a0bb0888888600089876040518763ffffffff1660e01b8152600401610fa596959493929190615001565b600060405180830381600087803b158015610fbf57600080fd5b505af1158015610fd3573d6000803e3d6000fd5b505050507f9a2e42fd6722813d69113e7d0079d3d940171428df7373df9c7f7617cfda289282824261100591906150a6565b6040516110139291906150fc565b60405180910390a18192505050949350505050565b60008061103786868686611973565b90506000611044826112a0565b90506004600781111561105a57611059614257565b5b81600781111561106d5761106c614257565b5b148061109d57506005600781111561108857611087614257565b5b81600781111561109b5761109a614257565b5b145b6110dc576040517f08c379a00000000000000000000000000000000000000000000000000000000081526004016110d390614c1a565b60405180910390fd5b600180600084815260200190815260200160002060020160006101000a81548160ff0219169083151502179055507f712ae1383f79ac853f8d882153778e0260ef8f03b504e2866e0593e04d2b291f826040516111399190613974565b60405180910390a161114e82888888886120c7565b61115b82888888886121ab565b61116882888888886121bf565b8192505050949350505050565b60006111d2600160008481526020019081526020016000206000016040518060200160405290816000820160009054906101000a900467ffffffffffffffff1667ffffffffffffffff1667ffffffffffffffff168152505061221a565b67ffffffffffffffff169050919050565b7fb3b3f3b703cd84ce352197dcff232b1b5d3cfb2025ce47cf04742d0651f1af8881565b6000611211612228565b905090565b60008061127761126f7f150214d74d59b7d1e90c73fc22ef3d991dd0a76b046543d4d80ab92d2a50328f898960405160200161125493929190615125565b60405160208183030381529060405280519060200120611d3f565b868686611d59565b905061129487828860405180602001604052806000815250612232565b91505095945050505050565b60006112ab82612252565b9050919050565b60006007600084815260200190815260200160002060030160008373ffffffffffffffffffffffffffffffffffffffff1673ffffffffffffffffffffffffffffffffffffffff16815260200190815260200160002060009054906101000a900460ff16905092915050565b600080600080600760008681526020019081526020016000209050806000015481600101548260020154935093509350509193909250565b60606040518060400160405280600181526020017f3100000000000000000000000000000000000000000000000000000000000000815250905090565b60008061139d611f41565b90506113ba84828560405180602001604052806000815250612232565b91505092915050565b6000806113ce611f41565b905061142187828888888080601f016020809104026020016040519081016040528093929190818152602001838380828437600081840152601f19601f8201169050808301925050505050505087611d84565b91505095945050505050565b611435610ab7565b73ffffffffffffffffffffffffffffffffffffffff16611453611f41565b73ffffffffffffffffffffffffffffffffffffffff16146114a9576040517f08c379a00000000000000000000000000000000000000000000000000000000081526004016114a090614b27565b60405180910390fd5b3073ffffffffffffffffffffffffffffffffffffffff166114c8610ab7565b73ffffffffffffffffffffffffffffffffffffffff161461151d5760006114ed611f49565b6040516114fb929190614a60565b604051809103902090505b806115116002611f56565b1461151b57611506565b505b61152681612426565b50565b600080611534611f41565b905061158686828787878080601f016020809104026020016040519081016040528093929190818152602001838380828437600081840152601f19601f82011690508083019250505050505050612232565b915050949350505050565b600061159f8585858561246b565b9050949350505050565b60006064905090565b60006115bf848484612772565b90509392505050565b6000600854905090565b6115da610ab7565b73ffffffffffffffffffffffffffffffffffffffff166115f8611f41565b73ffffffffffffffffffffffffffffffffffffffff161461164e576040517f08c379a000000000000000000000000000000000000000000000000000000000815260040161164590614b27565b60405180910390fd5b3073ffffffffffffffffffffffffffffffffffffffff1661166d610ab7565b73ffffffffffffffffffffffffffffffffffffffff16146116c2576000611692611f49565b6040516116a0929190614a60565b604051809103902090505b806116b66002611f56565b146116c0576116ab565b505b6116cb81612819565b50565b600080600960009054906101000a900473ffffffffffffffffffffffffffffffffffffffff1673ffffffffffffffffffffffffffffffffffffffff1663d45c4435600a6000868152602001908152602001600020546040518263ffffffff1660e01b815260040161173f91906141c1565b602060405180830381865afa15801561175c573d6000803e3d6000fd5b505050506040513d601f19601f820116820180604052508101906117809190614c4f565b9050600181146117905780611793565b60005b915050919050565b60006117a56128b8565b905090565b600063bc197c8160e01b905095945050505050565b600061181c600160008481526020019081526020016000206001016040518060200160405290816000820160009054906101000a900467ffffffffffffffff1667ffffffffffffffff1667ffffffffffffffff168152505061221a565b67ffffffffffffffff169050919050565b611835610ab7565b73ffffffffffffffffffffffffffffffffffffffff16611853611f41565b73ffffffffffffffffffffffffffffffffffffffff16146118a9576040517f08c379a00000000000000000000000000000000000000000000000000000000081526004016118a090614b27565b60405180910390fd5b3073ffffffffffffffffffffffffffffffffffffffff166118c8610ab7565b73ffffffffffffffffffffffffffffffffffffffff161461191d5760006118ed611f49565b6040516118fb929190614a60565b604051809103902090505b806119116002611f56565b1461191b57611906565b505b61196c8483838080601f016020809104026020016040519081016040528093929190818152602001838380828437600081840152601f19601f82011690508083019250505050505050856128c2565b5050505050565b60008484848460405160200161198c949392919061515c565b6040516020818303038152906040528051906020012060001c9050949350505050565b6000600960009054906101000a900473ffffffffffffffffffffffffffffffffffffffff16905090565b60606040518060400160405280602081526020017f737570706f72743d627261766f2671756f72756d3d666f722c6162737461696e815250905090565b7f150214d74d59b7d1e90c73fc22ef3d991dd0a76b046543d4d80ab92d2a50328f81565b611a42610ab7565b73ffffffffffffffffffffffffffffffffffffffff16611a60611f41565b73ffffffffffffffffffffffffffffffffffffffff1614611ab6576040517f08c379a0000000000000000000000000000000000000000000000000000000008152600401611aad90614b27565b60405180910390fd5b3073ffffffffffffffffffffffffffffffffffffffff16611ad5610ab7565b73ffffffffffffffffffffffffffffffffffffffff1614611b2a576000611afa611f49565b604051611b08929190614a60565b604051809103902090505b80611b1e6002611f56565b14611b2857611b13565b505b611b33816128f1565b50565b6000611b428383612979565b905092915050565b611b52610ab7565b73ffffffffffffffffffffffffffffffffffffffff16611b70611f41565b73ffffffffffffffffffffffffffffffffffffffff1614611bc6576040517f08c379a0000000000000000000000000000000000000000000000000000000008152600401611bbd90614b27565b60405180910390fd5b3073ffffffffffffffffffffffffffffffffffffffff16611be5610ab7565b73ffffffffffffffffffffffffffffffffffffffff1614611c3a576000611c0a611f49565b604051611c18929190614a60565b604051809103902090505b80611c2e6002611f56565b14611c3857611c23565b505b611c4381612995565b50565b600063f23a6e6160e01b905095945050505050565b6000611c66826129da565b9050919050565b7f000000000000000000000000000000000000000000000000000000000000000081565b6000600960009054906101000a900473ffffffffffffffffffffffffffffffffffffffff16905090565b60007f6e665ced000000000000000000000000000000000000000000000000000000007bffffffffffffffffffffffffffffffffffffffffffffffffffffffff1916827bffffffffffffffffffffffffffffffffffffffffffffffffffffffff19161480611d2e5750611d2d82612aa1565b5b9050919050565b6000600554905090565b6000611d52611d4c612c06565b83612d20565b9050919050565b6000806000611d6a87878787612d53565b91509150611d7781612e60565b8192505050949350505050565b60008060016000888152602001908152602001600020905060016007811115611db057611daf614257565b5b611db9886112a0565b6007811115611dcb57611dca614257565b5b14611e0b576040517f08c379a0000000000000000000000000000000000000000000000000000000008152600401611e0290615228565b60405180910390fd5b6000611e6a87611e5a846000016040518060200160405290816000820160009054906101000a900467ffffffffffffffff1667ffffffffffffffff1667ffffffffffffffff168152505061221a565b67ffffffffffffffff1686612772565b9050611e798888888488613035565b600084511415611edc578673ffffffffffffffffffffffffffffffffffffffff167fb8e138887d0aa13bab447e82de9d5c1777041ecd21ca36ba824ff1e6c07ddda489888489604051611ecf9493929190615248565b60405180910390a2611f33565b8673ffffffffffffffffffffffffffffffffffffffff167fe2babfbac5889a709b63bb7f598b324e08bc5a4fb9ec647fb3cbc9ec07eb87128988848989604051611f2a9594939291906152de565b60405180910390a25b809250505095945050505050565b600033905090565b3660008036915091509091565b6000611f618261323c565b15611f98576040517f3db2a12a00000000000000000000000000000000000000000000000000000000815260040160405180910390fd5b60008260000160009054906101000a9004600f0b905082600101600082600f0b600f0b815260200190815260200160002054915082600101600082600f0b600f0b815260200190815260200160002060009055600181018360000160006101000a8154816fffffffffffffffffffffffffffffffff0219169083600f0b6fffffffffffffffffffffffffffffffff16021790555050919050565b61203a6115a9565b81111561207c576040517f08c379a0000000000000000000000000000000000000000000000000000000008152600401612073906153d7565b60405180910390fd5b60006008549050816008819055507f0553476bf02ef2726e8ce5ced78d63e26e602e4a2257b1f559418e24b463399781836040516120bb9291906150fc565b60405180910390a15050565b3073ffffffffffffffffffffffffffffffffffffffff166120e6610ab7565b73ffffffffffffffffffffffffffffffffffffffff16146121a45760005b84518110156121a2573073ffffffffffffffffffffffffffffffffffffffff16858281518110612137576121366153f7565b5b602002602001015173ffffffffffffffffffffffffffffffffffffffff16141561219157612190838281518110612171576121706153f7565b5b602002602001015180519060200120600261327190919063ffffffff16565b5b8061219b90615426565b9050612104565b505b5050505050565b6121b885858585856132ed565b5050505050565b3073ffffffffffffffffffffffffffffffffffffffff166121de610ab7565b73ffffffffffffffffffffffffffffffffffffffff161461221357612203600261323c565b61221257612211600261338b565b5b5b5050505050565b600081600001519050919050565b6000600454905090565b60006122488585858561224361340c565b611d84565b9050949350505050565b60008061225e83613423565b90506004600781111561227457612273614257565b5b81600781111561228757612286614257565b5b146122955780915050612421565b6000600a60008581526020019081526020016000205490506000801b8114156122c2578192505050612421565b600960009054906101000a900473ffffffffffffffffffffffffffffffffffffffff1673ffffffffffffffffffffffffffffffffffffffff16632ab0f529826040518263ffffffff1660e01b815260040161231d91906141c1565b602060405180830381865afa15801561233a573d6000803e3d6000fd5b505050506040513d601f19601f8201168201806040525081019061235e919061549b565b1561236e57600792505050612421565b600960009054906101000a900473ffffffffffffffffffffffffffffffffffffffff1673ffffffffffffffffffffffffffffffffffffffff1663584b153e826040518263ffffffff1660e01b81526004016123c991906141c1565b602060405180830381865afa1580156123e6573d6000803e3d6000fd5b505050506040513d601f19601f8201168201806040525081019061240a919061549b565b1561241a57600592505050612421565b6002925050505b919050565b7fc565b045403dc03c2eea82b81a0465edad9e2e7fc4d97e11421c209da93d7a93600454826040516124599291906150fc565b60405180910390a18060048190555050565b600061247561179b565b612492612480611f41565b60014361248d91906154c8565b611b36565b10156124d3576040517f08c379a00000000000000000000000000000000000000000000000000000000081526004016124ca9061556e565b60405180910390fd5b60006124e88686868680519060200120611973565b9050845186511461252e576040517f08c379a000000000000000000000000000000000000000000000000000000000815260040161252590615600565b60405180910390fd5b8351865114612572576040517f08c379a000000000000000000000000000000000000000000000000000000000815260040161256990615600565b60405180910390fd5b60008651116125b6576040517f08c379a00000000000000000000000000000000000000000000000000000000081526004016125ad9061566c565b60405180910390fd5b6000600160008381526020019081526020016000209050612616816000016040518060200160405290816000820160009054906101000a900467ffffffffffffffff1667ffffffffffffffff1667ffffffffffffffff1681525050613538565b612655576040517f08c379a000000000000000000000000000000000000000000000000000000000815260040161264c906156fe565b60405180910390fd5b6000612667612662611207565b613552565b61267043613552565b61267a9190615732565b9050600061268e612689610ad8565b613552565b826126999190615732565b90506126b182846000016135a990919063ffffffff16565b6126c781846001016135a990919063ffffffff16565b7f7d84a6263ae0d98d3329bd7b46bb4e8d6f98cd35a7adb45c274c8b7fd5ebd5e0846126f1611f41565b8b8b8d5167ffffffffffffffff81111561270e5761270d613a6f565b5b60405190808252806020026020018201604052801561274157816020015b606081526020019060019003908161272c5790505b508c88888e60405161275b999897969594939291906158ad565b60405180910390a183945050505050949350505050565b60007f000000000000000000000000000000000000000000000000000000000000000073ffffffffffffffffffffffffffffffffffffffff16633a46b1a885856040518363ffffffff1660e01b81526004016127cf92919061595d565b602060405180830381865afa1580156127ec573d6000803e3d6000fd5b505050506040513d601f19601f820116820180604052508101906128109190614c4f565b90509392505050565b7f08f74ea46ef7894f65eabfb5e6e695de773a000b47c529ab559178069b226401600960009054906101000a900473ffffffffffffffffffffffffffffffffffffffff168260405161286c929190615986565b60405180910390a180600960006101000a81548173ffffffffffffffffffffffffffffffffffffffff021916908373ffffffffffffffffffffffffffffffffffffffff16021790555050565b6000600654905090565b60606128e88484846040518060600160405280602981526020016161a7602991396135d8565b90509392505050565b60008111612934576040517f08c379a000000000000000000000000000000000000000000000000000000000815260040161292b90615a21565b60405180910390fd5b7f7e3f7f0708a84de9203036abaa450dccc85ad5ff52f78c170f3edb55cf5e8828600554826040516129679291906150fc565b60405180910390a18060058190555050565b600061298d838361298861340c565b612772565b905092915050565b7fccb45da8d5717e6c4544694297c4ba5cf151d455c9bb0ed4fc7a38411bc05461600654826040516129c89291906150fc565b60405180910390a18060068190555050565b60006129e46115a9565b6129ec6115c8565b7f000000000000000000000000000000000000000000000000000000000000000073ffffffffffffffffffffffffffffffffffffffff16638e539e8c856040518263ffffffff1660e01b8152600401612a459190613974565b602060405180830381865afa158015612a62573d6000803e3d6000fd5b505050506040513d601f19601f82011682018060405250810190612a869190614c4f565b612a909190615a41565b612a9a9190615aca565b9050919050565b6000639a802a6d60e01b630342018160e01b635f398a1460e01b7f79dd796f000000000000000000000000000000000000000000000000000000001818187bffffffffffffffffffffffffffffffffffffffffffffffffffffffff1916827bffffffffffffffffffffffffffffffffffffffffffffffffffffffff19161480612b8757507f79dd796f000000000000000000000000000000000000000000000000000000007bffffffffffffffffffffffffffffffffffffffffffffffffffffffff1916827bffffffffffffffffffffffffffffffffffffffffffffffffffffffff1916145b80612bef57507f4e2312e0000000000000000000000000000000000000000000000000000000007bffffffffffffffffffffffffffffffffffffffffffffffffffffffff1916827bffffffffffffffffffffffffffffffffffffffffffffffffffffffff1916145b80612bff5750612bfe826136ec565b5b9050919050565b60007f000000000000000000000000000000000000000000000000000000000000000073ffffffffffffffffffffffffffffffffffffffff163073ffffffffffffffffffffffffffffffffffffffff16148015612c8257507f000000000000000000000000000000000000000000000000000000000000000046145b15612caf577f00000000000000000000000000000000000000000000000000000000000000009050612d1d565b612d1a7f00000000000000000000000000000000000000000000000000000000000000007f00000000000000000000000000000000000000000000000000000000000000007f0000000000000000000000000000000000000000000000000000000000000000613756565b90505b90565b60008282604051602001612d35929190615b73565b60405160208183030381529060405280519060200120905092915050565b6000807f7fffffffffffffffffffffffffffffff5d576e7357a4501ddfe92f46681b20a08360001c1115612d8e576000600391509150612e57565b601b8560ff1614158015612da65750601c8560ff1614155b15612db8576000600491509150612e57565b600060018787878760405160008152602001604052604051612ddd9493929190615baa565b6020604051602081039080840390855afa158015612dff573d6000803e3d6000fd5b505050602060405103519050600073ffffffffffffffffffffffffffffffffffffffff168173ffffffffffffffffffffffffffffffffffffffff161415612e4e57600060019250925050612e57565b80600092509250505b94509492505050565b60006004811115612e7457612e73614257565b5b816004811115612e8757612e86614257565b5b1415612e9257613032565b60016004811115612ea657612ea5614257565b5b816004811115612eb957612eb8614257565b5b1415612efa576040517f08c379a0000000000000000000000000000000000000000000000000000000008152600401612ef190615c3b565b60405180910390fd5b60026004811115612f0e57612f0d614257565b5b816004811115612f2157612f20614257565b5b1415612f62576040517f08c379a0000000000000000000000000000000000000000000000000000000008152600401612f5990615ca7565b60405180910390fd5b60036004811115612f7657612f75614257565b5b816004811115612f8957612f88614257565b5b1415612fca576040517f08c379a0000000000000000000000000000000000000000000000000000000008152600401612fc190615d39565b60405180910390fd5b600480811115612fdd57612fdc614257565b5b816004811115612ff057612fef614257565b5b1415613031576040517f08c379a000000000000000000000000000000000000000000000000000000000815260040161302890615dcb565b60405180910390fd5b5b50565b60006007600087815260200190815260200160002090508060030160008673ffffffffffffffffffffffffffffffffffffffff1673ffffffffffffffffffffffffffffffffffffffff16815260200190815260200160002060009054906101000a900460ff16156130db576040517f08c379a00000000000000000000000000000000000000000000000000000000081526004016130d290615e5d565b60405180910390fd5b60018160030160008773ffffffffffffffffffffffffffffffffffffffff1673ffffffffffffffffffffffffffffffffffffffff16815260200190815260200160002060006101000a81548160ff0219169083151502179055506000600281111561314957613148614257565b5b60ff168460ff161415613176578281600001600082825461316a91906150a6565b92505081905550613234565b6001600281111561318a57613189614257565b5b60ff168460ff1614156131b757828160010160008282546131ab91906150a6565b92505081905550613233565b6002808111156131ca576131c9614257565b5b60ff168460ff1614156131f757828160020160008282546131eb91906150a6565b92505081905550613232565b6040517f08c379a000000000000000000000000000000000000000000000000000000000815260040161322990615eef565b60405180910390fd5b5b5b505050505050565b60008160000160009054906101000a9004600f0b600f0b8260000160109054906101000a9004600f0b600f0b13159050919050565b60008260000160109054906101000a9004600f0b90508183600101600083600f0b600f0b815260200190815260200160002081905550600181018360000160106101000a8154816fffffffffffffffffffffffffffffffff0219169083600f0b6fffffffffffffffffffffffffffffffff160217905550505050565b600960009054906101000a900473ffffffffffffffffffffffffffffffffffffffff1673ffffffffffffffffffffffffffffffffffffffff1663e38335e5348686866000876040518763ffffffff1660e01b8152600401613352959493929190614f57565b6000604051808303818588803b15801561336b57600080fd5b505af115801561337f573d6000803e3d6000fd5b50505050505050505050565b60008160000160006101000a8154816fffffffffffffffffffffffffffffffff0219169083600f0b6fffffffffffffffffffffffffffffffff16021790555060008160000160106101000a8154816fffffffffffffffffffffffffffffffff0219169083600f0b6fffffffffffffffffffffffffffffffff16021790555050565b606060405180602001604052806000815250905090565b6000806001600084815260200190815260200160002090508060020160009054906101000a900460ff161561345c576007915050613533565b8060020160019054906101000a900460ff161561347d576002915050613533565b600061348884611175565b905060008114156134ce576040517f08c379a00000000000000000000000000000000000000000000000000000000081526004016134c590615f5b565b60405180910390fd5b4381106134e057600092505050613533565b60006134eb856117bf565b90504381106135005760019350505050613533565b61350985613790565b801561351a5750613519856137d7565b5b1561352b5760049350505050613533565b600393505050505b919050565b600080826000015167ffffffffffffffff16149050919050565b600067ffffffffffffffff80168211156135a1576040517f08c379a000000000000000000000000000000000000000000000000000000000815260040161359890615fed565b60405180910390fd5b819050919050565b808260000160006101000a81548167ffffffffffffffff021916908367ffffffffffffffff1602179055505050565b60608247101561361d576040517f08c379a00000000000000000000000000000000000000000000000000000000081526004016136149061607f565b60405180910390fd5b61362685613802565b613665576040517f08c379a000000000000000000000000000000000000000000000000000000000815260040161365c906160eb565b60405180910390fd5b6000808673ffffffffffffffffffffffffffffffffffffffff16858760405161368e919061613c565b60006040518083038185875af1925050503d80600081146136cb576040519150601f19603f3d011682016040523d82523d6000602084013e6136d0565b606091505b50915091506136e0828286613825565b92505050949350505050565b60007f01ffc9a7000000000000000000000000000000000000000000000000000000007bffffffffffffffffffffffffffffffffffffffffffffffffffffffff1916827bffffffffffffffffffffffffffffffffffffffffffffffffffffffff1916149050919050565b60008383834630604051602001613771959493929190616153565b6040516020818303038152906040528051906020012090509392505050565b600080600760008481526020019081526020016000209050806002015481600101546137bc91906150a6565b6137cd6137c885611175565b611c5b565b1115915050919050565b6000806007600084815260200190815260200160002090508060000154816001015411915050919050565b6000808273ffffffffffffffffffffffffffffffffffffffff163b119050919050565b6060831561383557829050613885565b6000835111156138485782518084602001fd5b816040517f08c379a000000000000000000000000000000000000000000000000000000000815260040161387c9190613d63565b60405180910390fd5b9392505050565b6000604051905090565b600080fd5b600080fd5b60007fffffffff0000000000000000000000000000000000000000000000000000000082169050919050565b6138d5816138a0565b81146138e057600080fd5b50565b6000813590506138f2816138cc565b92915050565b60006020828403121561390e5761390d613896565b5b600061391c848285016138e3565b91505092915050565b60008115159050919050565b61393a81613925565b82525050565b60006020820190506139556000830184613931565b92915050565b6000819050919050565b61396e8161395b565b82525050565b60006020820190506139896000830184613965565b92915050565b6139988161395b565b81146139a357600080fd5b50565b6000813590506139b58161398f565b92915050565b600060ff82169050919050565b6139d1816139bb565b81146139dc57600080fd5b50565b6000813590506139ee816139c8565b92915050565b600080fd5b600080fd5b600080fd5b60008083601f840112613a1957613a186139f4565b5b8235905067ffffffffffffffff811115613a3657613a356139f9565b5b602083019150836001820283011115613a5257613a516139fe565b5b9250929050565b600080fd5b6000601f19601f8301169050919050565b7f4e487b7100000000000000000000000000000000000000000000000000000000600052604160045260246000fd5b613aa782613a5e565b810181811067ffffffffffffffff82111715613ac657613ac5613a6f565b5b80604052505050565b6000613ad961388c565b9050613ae58282613a9e565b919050565b600067ffffffffffffffff821115613b0557613b04613a6f565b5b613b0e82613a5e565b9050602081019050919050565b82818337600083830152505050565b6000613b3d613b3884613aea565b613acf565b905082815260208101848484011115613b5957613b58613a59565b5b613b64848285613b1b565b509392505050565b600082601f830112613b8157613b806139f4565b5b8135613b91848260208601613b2a565b91505092915050565b6000819050919050565b613bad81613b9a565b8114613bb857600080fd5b50565b600081359050613bca81613ba4565b92915050565b60008060008060008060008060e0898b031215613bf057613bef613896565b5b6000613bfe8b828c016139a6565b9850506020613c0f8b828c016139df565b975050604089013567ffffffffffffffff811115613c3057613c2f61389b565b5b613c3c8b828c01613a03565b9650965050606089013567ffffffffffffffff811115613c5f57613c5e61389b565b5b613c6b8b828c01613b6c565b9450506080613c7c8b828c016139df565b93505060a0613c8d8b828c01613bbb565b92505060c0613c9e8b828c01613bbb565b9150509295985092959890939650565b600060208284031215613cc457613cc3613896565b5b6000613cd2848285016139a6565b91505092915050565b600081519050919050565b600082825260208201905092915050565b60005b83811015613d15578082015181840152602081019050613cfa565b83811115613d24576000848401525b50505050565b6000613d3582613cdb565b613d3f8185613ce6565b9350613d4f818560208601613cf7565b613d5881613a5e565b840191505092915050565b60006020820190508181036000830152613d7d8184613d2a565b905092915050565b600073ffffffffffffffffffffffffffffffffffffffff82169050919050565b6000613db082613d85565b9050919050565b613dc081613da5565b8114613dcb57600080fd5b50565b600081359050613ddd81613db7565b92915050565b60008060008060808587031215613dfd57613dfc613896565b5b6000613e0b87828801613dce565b9450506020613e1c87828801613dce565b9350506040613e2d878288016139a6565b925050606085013567ffffffffffffffff811115613e4e57613e4d61389b565b5b613e5a87828801613b6c565b91505092959194509250565b613e6f816138a0565b82525050565b6000602082019050613e8a6000830184613e66565b92915050565b600067ffffffffffffffff821115613eab57613eaa613a6f565b5b602082029050602081019050919050565b6000613ecf613eca84613e90565b613acf565b90508083825260208201905060208402830185811115613ef257613ef16139fe565b5b835b81811015613f1b5780613f078882613dce565b845260208401935050602081019050613ef4565b5050509392505050565b600082601f830112613f3a57613f396139f4565b5b8135613f4a848260208601613ebc565b91505092915050565b600067ffffffffffffffff821115613f6e57613f6d613a6f565b5b602082029050602081019050919050565b6000613f92613f8d84613f53565b613acf565b90508083825260208201905060208402830185811115613fb557613fb46139fe565b5b835b81811015613fde5780613fca88826139a6565b845260208401935050602081019050613fb7565b5050509392505050565b600082601f830112613ffd57613ffc6139f4565b5b813561400d848260208601613f7f565b91505092915050565b600067ffffffffffffffff82111561403157614030613a6f565b5b602082029050602081019050919050565b600061405561405084614016565b613acf565b90508083825260208201905060208402830185811115614078576140776139fe565b5b835b818110156140bf57803567ffffffffffffffff81111561409d5761409c6139f4565b5b8086016140aa8982613b6c565b8552602085019450505060208101905061407a565b5050509392505050565b600082601f8301126140de576140dd6139f4565b5b81356140ee848260208601614042565b91505092915050565b6000806000806080858703121561411157614110613896565b5b600085013567ffffffffffffffff81111561412f5761412e61389b565b5b61413b87828801613f25565b945050602085013567ffffffffffffffff81111561415c5761415b61389b565b5b61416887828801613fe8565b935050604085013567ffffffffffffffff8111156141895761418861389b565b5b614195878288016140c9565b92505060606141a687828801613bbb565b91505092959194509250565b6141bb81613b9a565b82525050565b60006020820190506141d660008301846141b2565b92915050565b600080600080600060a086880312156141f8576141f7613896565b5b6000614206888289016139a6565b9550506020614217888289016139df565b9450506040614228888289016139df565b935050606061423988828901613bbb565b925050608061424a88828901613bbb565b9150509295509295909350565b7f4e487b7100000000000000000000000000000000000000000000000000000000600052602160045260246000fd5b6008811061429757614296614257565b5b50565b60008190506142a882614286565b919050565b60006142b88261429a565b9050919050565b6142c8816142ad565b82525050565b60006020820190506142e360008301846142bf565b92915050565b60008060408385031215614300576142ff613896565b5b600061430e858286016139a6565b925050602061431f85828601613dce565b9150509250929050565b600060608201905061433e6000830186613965565b61434b6020830185613965565b6143586040830184613965565b949350505050565b6000806040838503121561437757614376613896565b5b6000614385858286016139a6565b9250506020614396858286016139df565b9150509250929050565b6000806000806000608086880312156143bc576143bb613896565b5b60006143ca888289016139a6565b95505060206143db888289016139df565b945050604086013567ffffffffffffffff8111156143fc576143fb61389b565b5b61440888828901613a03565b9350935050606086013567ffffffffffffffff81111561442b5761442a61389b565b5b61443788828901613b6c565b9150509295509295909350565b6000806000806060858703121561445e5761445d613896565b5b600061446c878288016139a6565b945050602061447d878288016139df565b935050604085013567ffffffffffffffff81111561449e5761449d61389b565b5b6144aa87828801613a03565b925092505092959194509250565b600067ffffffffffffffff8211156144d3576144d2613a6f565b5b6144dc82613a5e565b9050602081019050919050565b60006144fc6144f7846144b8565b613acf565b90508281526020810184848401111561451857614517613a59565b5b614523848285613b1b565b509392505050565b600082601f8301126145405761453f6139f4565b5b81356145508482602086016144e9565b91505092915050565b6000806000806080858703121561457357614572613896565b5b600085013567ffffffffffffffff8111156145915761459061389b565b5b61459d87828801613f25565b945050602085013567ffffffffffffffff8111156145be576145bd61389b565b5b6145ca87828801613fe8565b935050604085013567ffffffffffffffff8111156145eb576145ea61389b565b5b6145f7878288016140c9565b925050606085013567ffffffffffffffff8111156146185761461761389b565b5b6146248782880161452b565b91505092959194509250565b60008060006060848603121561464957614648613896565b5b600061465786828701613dce565b9350506020614668868287016139a6565b925050604084013567ffffffffffffffff8111156146895761468861389b565b5b61469586828701613b6c565b9150509250925092565b60006146aa82613d85565b9050919050565b60006146bc8261469f565b9050919050565b6146cc816146b1565b81146146d757600080fd5b50565b6000813590506146e9816146c3565b92915050565b60006020828403121561470557614704613896565b5b6000614713848285016146da565b91505092915050565b600080600080600060a0868803121561473857614737613896565b5b600061474688828901613dce565b955050602061475788828901613dce565b945050604086013567ffffffffffffffff8111156147785761477761389b565b5b61478488828901613fe8565b935050606086013567ffffffffffffffff8111156147a5576147a461389b565b5b6147b188828901613fe8565b925050608086013567ffffffffffffffff8111156147d2576147d161389b565b5b6147de88828901613b6c565b9150509295509295909350565b60008083601f840112614801576148006139f4565b5b8235905067ffffffffffffffff81111561481e5761481d6139f9565b5b60208301915083600182028301111561483a576148396139fe565b5b9250929050565b6000806000806060858703121561485b5761485a613896565b5b600061486987828801613dce565b945050602061487a878288016139a6565b935050604085013567ffffffffffffffff81111561489b5761489a61389b565b5b6148a7878288016147eb565b925092505092959194509250565b6148be81613da5565b82525050565b60006020820190506148d960008301846148b5565b92915050565b600080604083850312156148f6576148f5613896565b5b600061490485828601613dce565b9250506020614915858286016139a6565b9150509250929050565b600080600080600060a0868803121561493b5761493a613896565b5b600061494988828901613dce565b955050602061495a88828901613dce565b945050604061496b888289016139a6565b935050606061497c888289016139a6565b925050608086013567ffffffffffffffff81111561499d5761499c61389b565b5b6149a988828901613b6c565b9150509295509295909350565b6000819050919050565b60006149db6149d66149d184613d85565b6149b6565b613d85565b9050919050565b60006149ed826149c0565b9050919050565b60006149ff826149e2565b9050919050565b614a0f816149f4565b82525050565b6000602082019050614a2a6000830184614a06565b92915050565b600081905092915050565b6000614a478385614a30565b9350614a54838584613b1b565b82840190509392505050565b6000614a6d828486614a3b565b91508190509392505050565b614a82816139bb565b82525050565b600060a082019050614a9d60008301886141b2565b614aaa6020830187613965565b614ab76040830186614a79565b614ac460608301856141b2565b614ad160808301846141b2565b9695505050505050565b7f476f7665726e6f723a206f6e6c79476f7665726e616e63650000000000000000600082015250565b6000614b11601883613ce6565b9150614b1c82614adb565b602082019050919050565b60006020820190508181036000830152614b4081614b04565b9050919050565b7f4e487b7100000000000000000000000000000000000000000000000000000000600052602260045260246000fd5b60006002820490506001821680614b8e57607f821691505b60208210811415614ba257614ba1614b47565b5b50919050565b7f476f7665726e6f723a2070726f706f73616c206e6f742073756363657373667560008201527f6c00000000000000000000000000000000000000000000000000000000000000602082015250565b6000614c04602183613ce6565b9150614c0f82614ba8565b604082019050919050565b60006020820190508181036000830152614c3381614bf7565b9050919050565b600081519050614c498161398f565b92915050565b600060208284031215614c6557614c64613896565b5b6000614c7384828501614c3a565b91505092915050565b600081519050919050565b600082825260208201905092915050565b6000819050602082019050919050565b614cb181613da5565b82525050565b6000614cc38383614ca8565b60208301905092915050565b6000602082019050919050565b6000614ce782614c7c565b614cf18185614c87565b9350614cfc83614c98565b8060005b83811015614d2d578151614d148882614cb7565b9750614d1f83614ccf565b925050600181019050614d00565b5085935050505092915050565b600081519050919050565b600082825260208201905092915050565b6000819050602082019050919050565b614d6f8161395b565b82525050565b6000614d818383614d66565b60208301905092915050565b6000602082019050919050565b6000614da582614d3a565b614daf8185614d45565b9350614dba83614d56565b8060005b83811015614deb578151614dd28882614d75565b9750614ddd83614d8d565b925050600181019050614dbe565b5085935050505092915050565b600081519050919050565b600082825260208201905092915050565b6000819050602082019050919050565b600081519050919050565b600082825260208201905092915050565b6000614e4b82614e24565b614e558185614e2f565b9350614e65818560208601613cf7565b614e6e81613a5e565b840191505092915050565b6000614e858383614e40565b905092915050565b6000602082019050919050565b6000614ea582614df8565b614eaf8185614e03565b935083602082028501614ec185614e14565b8060005b85811015614efd5784840389528151614ede8582614e79565b9450614ee983614e8d565b925060208a01995050600181019050614ec5565b50829750879550505050505092915050565b6000819050919050565b60008160001b9050919050565b6000614f41614f3c614f3784614f0f565b614f19565b613b9a565b9050919050565b614f5181614f26565b82525050565b600060a0820190508181036000830152614f718188614cdc565b90508181036020830152614f858187614d9a565b90508181036040830152614f998186614e9a565b9050614fa86060830185614f48565b614fb560808301846141b2565b9695505050505050565b600081519050614fce81613ba4565b92915050565b600060208284031215614fea57614fe9613896565b5b6000614ff884828501614fbf565b91505092915050565b600060c082019050818103600083015261501b8189614cdc565b9050818103602083015261502f8188614d9a565b905081810360408301526150438187614e9a565b90506150526060830186614f48565b61505f60808301856141b2565b61506c60a0830184613965565b979650505050505050565b7f4e487b7100000000000000000000000000000000000000000000000000000000600052601160045260246000fd5b60006150b18261395b565b91506150bc8361395b565b9250827fffffffffffffffffffffffffffffffffffffffffffffffffffffffffffffffff038211156150f1576150f0615077565b5b828201905092915050565b60006040820190506151116000830185613965565b61511e6020830184613965565b9392505050565b600060608201905061513a60008301866141b2565b6151476020830185613965565b6151546040830184614a79565b949350505050565b600060808201905081810360008301526151768187614cdc565b9050818103602083015261518a8186614d9a565b9050818103604083015261519e8185614e9a565b90506151ad60608301846141b2565b95945050505050565b7f476f7665726e6f723a20766f7465206e6f742063757272656e746c792061637460008201527f6976650000000000000000000000000000000000000000000000000000000000602082015250565b6000615212602383613ce6565b915061521d826151b6565b604082019050919050565b6000602082019050818103600083015261524181615205565b9050919050565b600060808201905061525d6000830187613965565b61526a6020830186614a79565b6152776040830185613965565b81810360608301526152898184613d2a565b905095945050505050565b600082825260208201905092915050565b60006152b082614e24565b6152ba8185615294565b93506152ca818560208601613cf7565b6152d381613a5e565b840191505092915050565b600060a0820190506152f36000830188613965565b6153006020830187614a79565b61530d6040830186613965565b818103606083015261531f8185613d2a565b9050818103608083015261533381846152a5565b90509695505050505050565b7f476f7665726e6f72566f74657351756f72756d4672616374696f6e3a2071756f60008201527f72756d4e756d657261746f72206f7665722071756f72756d44656e6f6d696e6160208201527f746f720000000000000000000000000000000000000000000000000000000000604082015250565b60006153c1604383613ce6565b91506153cc8261533f565b606082019050919050565b600060208201905081810360008301526153f0816153b4565b9050919050565b7f4e487b7100000000000000000000000000000000000000000000000000000000600052603260045260246000fd5b60006154318261395b565b91507fffffffffffffffffffffffffffffffffffffffffffffffffffffffffffffffff82141561546457615463615077565b5b600182019050919050565b61547881613925565b811461548357600080fd5b50565b6000815190506154958161546f565b92915050565b6000602082840312156154b1576154b0613896565b5b60006154bf84828501615486565b91505092915050565b60006154d38261395b565b91506154de8361395b565b9250828210156154f1576154f0615077565b5b828203905092915050565b7f476f7665726e6f723a2070726f706f73657220766f7465732062656c6f77207060008201527f726f706f73616c207468726573686f6c64000000000000000000000000000000602082015250565b6000615558603183613ce6565b9150615563826154fc565b604082019050919050565b600060208201905081810360008301526155878161554b565b9050919050565b7f476f7665726e6f723a20696e76616c69642070726f706f73616c206c656e677460008201527f6800000000000000000000000000000000000000000000000000000000000000602082015250565b60006155ea602183613ce6565b91506155f58261558e565b604082019050919050565b60006020820190508181036000830152615619816155dd565b9050919050565b7f476f7665726e6f723a20656d7074792070726f706f73616c0000000000000000600082015250565b6000615656601883613ce6565b915061566182615620565b602082019050919050565b6000602082019050818103600083015261568581615649565b9050919050565b7f476f7665726e6f723a2070726f706f73616c20616c726561647920657869737460008201527f7300000000000000000000000000000000000000000000000000000000000000602082015250565b60006156e8602183613ce6565b91506156f38261568c565b604082019050919050565b60006020820190508181036000830152615717816156db565b9050919050565b600067ffffffffffffffff82169050919050565b600061573d8261571e565b91506157488361571e565b92508267ffffffffffffffff0382111561576557615764615077565b5b828201905092915050565b600081519050919050565b600082825260208201905092915050565b6000819050602082019050919050565b600082825260208201905092915050565b60006157b882613cdb565b6157c2818561579c565b93506157d2818560208601613cf7565b6157db81613a5e565b840191505092915050565b60006157f283836157ad565b905092915050565b6000602082019050919050565b600061581282615770565b61581c818561577b565b93508360208202850161582e8561578c565b8060005b8581101561586a578484038952815161584b85826157e6565b9450615856836157fa565b925060208a01995050600181019050615832565b50829750879550505050505092915050565b600061589761589261588d8461571e565b6149b6565b61395b565b9050919050565b6158a78161587c565b82525050565b6000610120820190506158c3600083018c613965565b6158d0602083018b6148b5565b81810360408301526158e2818a614cdc565b905081810360608301526158f68189614d9a565b9050818103608083015261590a8188615807565b905081810360a083015261591e8187614e9a565b905061592d60c083018661589e565b61593a60e083018561589e565b81810361010083015261594d8184613d2a565b90509a9950505050505050505050565b600060408201905061597260008301856148b5565b61597f6020830184613965565b9392505050565b600060408201905061599b60008301856148b5565b6159a860208301846148b5565b9392505050565b7f476f7665726e6f7253657474696e67733a20766f74696e6720706572696f642060008201527f746f6f206c6f7700000000000000000000000000000000000000000000000000602082015250565b6000615a0b602783613ce6565b9150615a16826159af565b604082019050919050565b60006020820190508181036000830152615a3a816159fe565b9050919050565b6000615a4c8261395b565b9150615a578361395b565b9250817fffffffffffffffffffffffffffffffffffffffffffffffffffffffffffffffff0483118215151615615a9057615a8f615077565b5b828202905092915050565b7f4e487b7100000000000000000000000000000000000000000000000000000000600052601260045260246000fd5b6000615ad58261395b565b9150615ae08361395b565b925082615af057615aef615a9b565b5b828204905092915050565b600081905092915050565b7f1901000000000000000000000000000000000000000000000000000000000000600082015250565b6000615b3c600283615afb565b9150615b4782615b06565b600282019050919050565b6000819050919050565b615b6d615b6882613b9a565b615b52565b82525050565b6000615b7e82615b2f565b9150615b8a8285615b5c565b602082019150615b9a8284615b5c565b6020820191508190509392505050565b6000608082019050615bbf60008301876141b2565b615bcc6020830186614a79565b615bd960408301856141b2565b615be660608301846141b2565b95945050505050565b7f45434453413a20696e76616c6964207369676e61747572650000000000000000600082015250565b6000615c25601883613ce6565b9150615c3082615bef565b602082019050919050565b60006020820190508181036000830152615c5481615c18565b9050919050565b7f45434453413a20696e76616c6964207369676e6174757265206c656e67746800600082015250565b6000615c91601f83613ce6565b9150615c9c82615c5b565b602082019050919050565b60006020820190508181036000830152615cc081615c84565b9050919050565b7f45434453413a20696e76616c6964207369676e6174757265202773272076616c60008201527f7565000000000000000000000000000000000000000000000000000000000000602082015250565b6000615d23602283613ce6565b9150615d2e82615cc7565b604082019050919050565b60006020820190508181036000830152615d5281615d16565b9050919050565b7f45434453413a20696e76616c6964207369676e6174757265202776272076616c60008201527f7565000000000000000000000000000000000000000000000000000000000000602082015250565b6000615db5602283613ce6565b9150615dc082615d59565b604082019050919050565b60006020820190508181036000830152615de481615da8565b9050919050565b7f476f7665726e6f72566f74696e6753696d706c653a20766f746520616c72656160008201527f6479206361737400000000000000000000000000000000000000000000000000602082015250565b6000615e47602783613ce6565b9150615e5282615deb565b604082019050919050565b60006020820190508181036000830152615e7681615e3a565b9050919050565b7f476f7665726e6f72566f74696e6753696d706c653a20696e76616c696420766160008201527f6c756520666f7220656e756d20566f7465547970650000000000000000000000602082015250565b6000615ed9603583613ce6565b9150615ee482615e7d565b604082019050919050565b60006020820190508181036000830152615f0881615ecc565b9050919050565b7f476f7665726e6f723a20756e6b6e6f776e2070726f706f73616c206964000000600082015250565b6000615f45601d83613ce6565b9150615f5082615f0f565b602082019050919050565b60006020820190508181036000830152615f7481615f38565b9050919050565b7f53616665436173743a2076616c756520646f65736e27742066697420696e203660008201527f3420626974730000000000000000000000000000000000000000000000000000602082015250565b6000615fd7602683613ce6565b9150615fe282615f7b565b604082019050919050565b6000602082019050818103600083015261600681615fca565b9050919050565b7f416464726573733a20696e73756666696369656e742062616c616e636520666f60008201527f722063616c6c0000000000000000000000000000000000000000000000000000602082015250565b6000616069602683613ce6565b91506160748261600d565b604082019050919050565b600060208201905081810360008301526160988161605c565b9050919050565b7f416464726573733a2063616c6c20746f206e6f6e2d636f6e7472616374000000600082015250565b60006160d5601d83613ce6565b91506160e08261609f565b602082019050919050565b60006020820190508181036000830152616104816160c8565b9050919050565b600061611682614e24565b6161208185614a30565b9350616130818560208601613cf7565b80840191505092915050565b6000616148828461610b565b915081905092915050565b600060a08201905061616860008301886141b2565b61617560208301876141b2565b61618260408301866141b2565b61618f6060830185613965565b61619c60808301846148b5565b969550505050505056fe416464726573733a206c6f772d6c6576656c2063616c6c20776974682076616c7565206661696c6564a2646970667358221220120f68516df05106c7bfc2f5a8a9a7cfa3432d0fd6e2bee209d635c373f536e164736f6c634300080c0033",
  "linkReferences": {},
  "deployedLinkReferences": {}
}